:020000040800F2
:10000000200A002045010008C32E0008CD1A000870
:10001000BF2E0008D5100008914A0008000000001B
:10002000000000000000000000000000FF3E00088B
:10003000D910000800000000B93700081D41000871
:100040005F0100085F0100085F010008893B0008AC
:100050005F0100085F0100085F0100085F01000800
:100060005F0100085F0100085F0100085F010008F0
:100070005F0100085F0100085F0100085F010008E0
:100080005F0100085F0100085F0100085F010008D0
:100090005F0100085F0100085F0100085F010008C0
:1000A0005F0100085F0100085F0100085F010008B0
:1000B00081410008194200085F0100085F01000843
:1000C0005F0100085F0100085F0100085F01000890
:1000D0005F010008714700088D470008D9470008F4
:1000E0005F0100085F0100085F0100085F01000870
:1000F0005F0100085F0100085F0100085F01000860
:100100005F0100085F0100085F0100085F0100084F
:10011000E94600085F0100085F0100085F01000870
:100120005F0100085F0100085F0100085F0100082F
:10013000DFF80CD000F0F8FC00480047155F00081D
:10014000200A00200648804706480047FEE7FEE7F1
:10015000FEE7FEE7FEE7FEE7FEE7FEE7FEE7FEE777
:100160002141000831010008A0F14101192900D8FE
:100170002030704740EA01039B0703D009E008C91B
:10018000121F08C0042AFAD203E011F8013B00F85C
:10019000013B521EF9D27047D2B201E000F8012BA8
:1001A000491EFBD270470022F6E710B513460A46F7
:1001B00004461946FFF7F0FF204610BD30B505464E
:1001C0002A460B4612F8010B13F8014B08B1A04266
:1001D000F8D01CB1002802D06D1CF1E7284630BDD4
:1001E000CAB2401E10F8011F8A4202D00029F9D17C
:1001F00000207047421C10F8011B0029FBD1801A17
:10020000704710B5044600E0401C0378002BFBD17A
:1002100000E0401C521E04D311F8013B0370002B78
:10022000F7D100210170204610BD30B505460020F1
:10023000034600E05B1C934205D2EC5CC85C201ACC
:1002400001D1002CF6D130BD70B5064604F048FD52
:10025000046805460A220021304600F069FB2C6044
:1002600070BDF0B480EA0102D40F4200B2EB410F3E
:1002700002D20246084611464A0042D0C30DDDB202
:10028000C1F3C752AD1A202D35DAC1F3160141F47E
:10029000000204B15242C5F1200602FA06F12A41D9
:1002A0001044B3EBD05F23D0C4B1012DA0EBC350F9
:1002B00009DCF0BC4FF0004202EAC352DBB200F5A9
:1002C000000000F076BB400000F1807000EBC350EE
:1002D000A0F1807040EAD170490009E0490841EA84
:1002E000C071A0EBC35000F50000400800EBC35004
:1002F000F0BC00F055BB6142012202EB4101001B42
:10030000F6E7F0BC704781F00041AAE780F00040BA
:10031000A7E780EA010210B502F00043400022D0B6
:100320004A001FD0010E01EB1261C0F35600C2F368
:10033000560240F4000042F40002A0FB0220000438
:100340007F39140400D0401C50EA124001D4400010
:10035000491EC2B20C0604EBD010401C4008802A93
:1003600002D003E0002010BD20F00100002900DAD7
:100370000020184310BD30B480EA010202F00045AD
:1003800030F0004221F0004013D090B1C30DD40DE5
:10039000C2F31601C0F31600E41A41F4000140F460
:1003A00000027D34914201D3641C00E04900002C1E
:1003B00002DA30BC002070474FF400000023914265
:1003C00001D3891A034340084FEA4101F7D151B1E3
:1003D000914202D14FF0004105E002D24FF00101FD
:1003E00001E06FF0010103EBC450284430BC00F081
:1003F000D7BA2DE9FE4F804681EA0300C00F0C46B4
:10040000009021F0004123F00045B8EB0200A94123
:1004100005D24046214690461C460B46024623F034
:100420000040104347D0270DC7F30A00C3F30A5119
:100430000290401A019040286BDAC3F3130040F495
:10044000801B0098924620B10023D2EB030A63EB95
:100450000B0B01985946C0F14002504600F037FAA4
:1004600006460D4650465946019A00F04FFA10EBE9
:1004700008006141002487EA115284EAE7731A43B5
:1004800040D0009A62B3019A012A4FEA075215DC64
:10049000001B61EB02014FF0004202EA0752CDE976
:1004A0000042001C41F5801132462B4600F0BEFA96
:1004B00003B0BDE8F08F40462146F9E7001B61EB31
:1004C0000201001C41F5801300185B412018A2F5C1
:1004D000001747EB030140EAD570B6196D4111E0F2
:1004E0006D084FEA360645EAC0754FEA0752001B11
:1004F00061EB0201001C41F5801149084FEA300010
:100500000019514132462B4603B0BDE8F04F00F0D0
:100510007EBA0098012240000023D0EB020263EB78
:10052000E073009821464FEAE074B8EB000061EBFD
:100530000401E9E783F000435BE781F0004158E7FD
:100540002DE9FE4F81EA030404F0004421F000414C
:1005500000944FF0000B23F0004350EA01045ED0FA
:1005600052EA03045BD0C3F30A54C1F30A552C4486
:10057000A4F2F3340194A0FB0254C1F3130141F43B
:100580008011C3F3130343F4801301FB024400FB07
:10059000034E840A970A44EA815447EA8357A4FB2E
:1005A000076802958D0A05FB07854FEA932C04FB2B
:1005B0000C542705029D4FEA065847EA1637B5EB5B
:1005C00008056EEB070C870E920E47EA811742EA88
:1005D0008312A7FB0201B6EB0B0164EB00042B0DA9
:1005E00043EA0C335E1844EB1C50DA465146E7FBF5
:1005F0000201C5F313044FEA0B3343EA14534FEAE5
:100600000432019C43EA0603A4F10C040294009C0A
:10061000CDE900B400F00AFA03B0BDE8F08F002085
:100620000146F9E72DE9F04D81EA030404F0004B9F
:1006300021F0004514464FF0000A23F0004150EA33
:10064000050220D054EA01021DD0C5F30A57024624
:10065000C5F31303C1F31300C1F30A5640F4801528
:1006600043F48013A7EB0608101BD64608F2FD38AA
:1006700073EB050002D308F1010801E092185B4119
:10068000B8F1000F03DA00200146BDE8F08D00202C
:100690004FF48011064684460EE0171B73EB0507E6
:1006A00005D3121B63EB050306434CEA010C490812
:1006B0004FEA300092185B4150EA0107EDD152EA4F
:1006C000030012D082EA040083EA0501084305D042
:1006D000101BAB4106D20122002306E000224FF09E
:1006E000004302E06FF0010253101AEB06004CEBDE
:1006F000085110EB0A0041EB0B01BDE8F04D00F092
:1007000086B996230022114600F053B90EB5C10FE9
:1007100080EAE0700844CA07002140F233438DE8C4
:100720000E000A460B4600F081F903B000BD00F050
:10073000004220F00040C10DC0F3160040F400005C
:100740007F2901DA00207047962903DCC1F1960168
:10075000C84001E096398840002AF4D040427047F2
:1007600070B5C1F30A5201F000450024C1F3130132
:1007700040F2FF3341F480119A4201DA002070BD4B
:1007800040F233439A42A2F2334203DC524200F079
:10079000ADF800E090402C43F1D0404270BD00F035
:1007A000004230F000400AD0C10D01F56071C0F385
:1007B000160042EA0151C208400711437047002069
:1007C0000146704730B5041E71F1000404DB4FF0A0
:1007D0000044404264EB0101141E73F1000405DB88
:1007E0001C464FF00043524263EB0403994208BF9A
:1007F000904230BD01F0004330B421F0004150EA96
:10080000010206D00A0DA2F56072C1F31301002A9D
:1008100002DC30BC00207047440F44EAC104C10030
:10082000E01830BC00EBC25000F0BAB8002801DB81
:10083000C0F10040002901DBC1F10041884270474E
:1008400030B50B46014600202022012409E021FAA0
:1008500002F59D4205D303FA02F5491B04FA02F59D
:100860002844151EA2F10102F1DC30BD2DE9F05F34
:100870000546002092469B4688460646814640240F
:100880001BE0284641464746224600F02FF85346D3
:100890005A46C01A914110D311461846224600F01C
:1008A00016F82D1A67EB01084F4622460120002159
:1008B00000F00DF817EB00094E41201EA4F10104D1
:1008C000DFDC484631462A464346BDE8F09F202AF1
:1008D00004DB203A00FA02F1002070479140C2F197
:1008E000200320FA03F3194390407047202A04DBC9
:1008F000203A21FA02F00021704721FA02F3D04099
:10090000C2F120029140084319467047202A06DBB5
:10091000CB17203A41FA02F043EAE07306E041FACD
:1009200002F3D040C2F120029140084319467047BB
:100930002DE9F04791460F4680460446002614F8FC
:10094000015B2DB100F002F90068405DC007F6D1EF
:100950002B2D02D02D2D18D0641E4A463946204634
:1009600000F0F8F827B13968A14201D1C7F800803A
:1009700071054FF002040BD54042002803DD04F05E
:10098000AFF90460A007BDE8F08746F48066E4E7AD
:100990000028F8DA04F0A4F904606FF00040F2E7F0
:1009A0000029A8BF7047401C490008BF20F0010083
:1009B000704710B4B0FA80FC00FA0CF050EA010461
:1009C00004BF10BC704749B1CCF1200421FA04F4F3
:1009D00011FA0CF118BF012121430843A3EB0C01CC
:1009E000CB1D4FEA00614FEA102042BF002010BC2F
:1009F000704700EBC35010440029A4BF10BC7047DF
:100A0000401C490008BF20F0010010BC704710B521
:100A1000141E73F1000408DA401C41F10001921821
:100A20005B411A4301D120F0010010BD2DE9F04DCA
:100A300092469B4611B1B1FA81F202E0B0FA80F21F
:100A400020329046FFF743FF04460F4640EA0A0073
:100A500041EA0B0153465A46084313D0114653EA64
:100A6000010019D0C8F140025046FFF73FFF05468C
:100A70000E46504659464246FFF729FF084305D027
:100A8000012004E020463946BDE8F08D00200543F2
:100A900046EAE0762C4337430A986305E40AA0EB64
:100AA00008000022FD0A44EA47540A3002D500201B
:100AB0000146E9E7010510196941DDE9084500191A
:100AC0006941BDE8F04DA2E770B521F00043034352
:100AD0000CD0C1F30A550024D5EB040564EB0403E4
:100AE000D617AD1AB34102DB0020014670BD2018B5
:100AF00041EB025170BDC1F30A52C1F3130140F240
:100B0000FF3341F480119A4202DA00200146704717
:100B100040F233439A42A2F2334202DC5242FFF7E0
:100B2000E5BEFFF7D4BE0000064C074D06E0E068C6
:100B300040F0010394E8070098471034AC42F6D324
:100B4000FFF7FAFA3CD500085CD50008004870476A
:100B5000ACD400082DE9F05F8246007800271546E6
:100B60008B460AF10104B946302801D09DB113E04B
:100B700014F8010B0127782803D0582801D045B17B
:100B80000AE00DB1102D07D10027102514F8010B34
:100B900002E0082500E00A250026B0460EE005FB2D
:100BA000080005FB06F1012701EB10461FFA80F84B
:100BB000B6F5803F00D3B94614F8010B294600F082
:100BC00069F80028EBDABBF1000F05D00FB1641E05
:100BD00000E05446CBF80040B9F1000F06D004F015
:100BE0007FF802210160C81EBDE8F09F48EA064078
:100BF000FAE72DE9F04D00231A461B1A8A4103DB60
:100C000000200146BDE8F08DC1F30A52C1F3130183
:100C100041F480154FF0000BD10702D100186D414F
:100C2000521E0027044640F2FF11384601EB620ACB
:100C30003E468046024600204FF48011FFF756FEE4
:100C4000C2197141BB1846EB0100B4EB030C75EB04
:100C5000000C04D3E41A65EB000517460E46241970
:100C600008F101006D4180463428E3DDF91946EBB7
:100C70000600091BA84103D24FF0FF32134601E0E2
:100C8000002213461BEB070046EB0A51BDE8F04D6E
:100C9000FFF7BDBE3A2800D2303820F02002412AAA
:100CA00001D3A2F13700884201D34FF0FF307047E3
:100CB00021B1826842F00102826003E0826822F082
:100CC000010282607047000010B504461248844259
:100CD00008D10121401502F09DFD0021601502F0B0
:100CE00099FD17E00D48844208D10121001502F05A
:100CF00091FD0021201502F08DFD0BE00848844293
:100D000008D10121C80302F085FD00214FF4004005
:100D100002F080FD10BD00000024014000280140C9
:100D2000003C0140014600208A6802F004020AB13A
:100D3000012000E0002070470146C86C80B2704777
:100D40000246002013680B400BB1012000E0002098
:100D50007047014600208A6802F008020AB10120AB
:100D600000E00020704710B50023CBB21AB14468F0
:100D70001C43446002E044689C43446010BD000092
:100D800030B502460020002350680F4C20400D79FA
:100D90000C6844EA05242043506090680B4C2040C6
:100DA000D1E902542C434D7944EA45042043906034
:100DB000D06A20F470000C7C641EE4B2234340EA45
:100DC0000350D06230BD0000FFFEF0FFFDF7F1FFE1
:100DD00000B587B001214FF4017002F00BFD4FF414
:100DE000004002F0EBFC00208DF81B000220ADF863
:100DF000180006A91D4800F06DFB1D48FFF764FFB1
:100E000000208DF80900049001904FF460200390B9
:100E100001208DF8140000208DF8080001A9144865
:100E2000FFF7AEFF072301221146114800F022F818
:100E300001224FF408710E48FFF795FF01210C487D
:100E4000FFF736FF0A4800F071F800BF0848FFF7C7
:100E500080FF0028FAD1064800F078F800BF044867
:100E6000FFF760FF0028FAD107B000BD000801407D
:100E700000240140F0B504460D4600200021092D54
:100E800011DDE068A5F10A0606EB4607072606FA1B
:100E900007F18843A5F10A0606EB460603FA06F1B8
:100EA0000843E0600CE0206905EB4507072606FAD9
:100EB00007F1884305EB450603FA06F10843206174
:100EC000072A0FDA606B561E06EB86071F2606FA06
:100ED00007F18843561E06EB860605FA06F108431D
:100EE000606322E00D2A0FDA206BD61F06EB86071F
:100EF0001F2606FA07F18843D61F06EB860605FA79
:100F000006F10843206310E0E06AA2F10D0606EB4B
:100F100086071F2606FA07F18843A2F10D0606EBA5
:100F2000860605FA06F10843E062F0BD816841F0EB
:100F300008018160704721B1826842F4A00282609A
:100F400003E0826822F4A00282607047816841F069
:100F500004018160704700002DE9FC5F142101202D
:100F600000F04CFD2949088008460088FFF7C9FBBE
:100F70008046FFF714FC06464FF06632244BFFF71D
:100F8000DFFA0446FFF736FC22490860084601688C
:100F90002148FFF7B8F981461E4801684846FFF727
:100FA000EAF90446FFF7FBFB074600221B4BFFF75D
:100FB000C7FA0546FFF71EFC1949086019481A4987
:100FC000086017480068FFF7EAFB80468946164824
:100FD0000068FFF7E4FB154A154BCDE90001FFF768
:100FE000AFFA824642464B46FFF71CFB06464FF0DF
:100FF0006042104B05F0D2FE0446FFF7FBFB0E49A2
:10100000086008460068BDE8FC9F00004C00002016
:1010100066664A3F580000200000A0400000E03F04
:1010200050000020E17AD44054000020A089B0E1B3
:10103000E9152740F0F4E43F5C00002008B50121E9
:10104000082002F0D7FB4FF48070ADF800001020AC
:101050008DF8030003208DF802006946044800F073
:1010600039FA4FF48071024800F013FB08BD00000C
:10107000000C0140012803D10021034A116002E065
:101080000121014A11607047A081214210B5012061
:1010900002F0D0FB002002F0CDFB10BD08B50146E8
:1010A00000200090034800900098084400900098A9
:1010B000008808BD006C004008B500220092044A78
:1010C0000092009A02440092009A116008BD00004C
:1010D000006C004000BFFEE7704700003EB50446CC
:1010E0004FF6FF7000F0C2FD1F20009019480288E3
:1010F00014230021084600F0F7FD1F20009015483A
:10110000438802884088143881B2002000F0ECFD4A
:101110004FF6FF7010490880012010211F234FF661
:10112000FF72CDE9004102900221002000F0AEFCE8
:101130000120102109A2CDE9002102900548408834
:10114000123881B21F234FF6FF72002000F09EFC80
:101150003EBD0000880300206000002068747470A9
:101160003A2F2F7777772E6C636477696B692E63DC
:101170006F6D000010B580210348FFF714F80020C0
:101180000249088010BD0000A00300207800002064
:1011900070B50546002400BF00F082F980B90DA1AA
:1011A0000E48FFF70BF8044654B13A212046FFF7EA
:1011B00017F8044614B1641C204670BD0020FCE7FB
:1011C000052004F00DFC681E85B2002DE4DC002033
:1011D000F3E700004950442C00000000A003002069
:1011E00008B50121102002F005FB10208DF8030046
:1011F0004002ADF8000003208DF8020069463D482A
:1012000000F068F900224FF400513A4800F043FA28
:10121000FA2004F0E5FB01225103364800F03BFAC6
:101220004FF4FA7004F0DCFBFFF7A4FF32A134485E
:1012300003F0DEFC03E04FF4FA7004F0D1FB31A1BF
:1012400031A000F0DFF80028F5D131A12C4803F0DF
:10125000CFFC2EA131A000F0D5F84FF4FA7004F0C5
:10126000BFFB2AA130A000F0CDF84FF4FA7004F0D3
:10127000B7FB31A1224803F0BBFC03E04FF4FA7046
:1012800004F0AEFB1FA12FA000F0BCF80028F5D1A0
:1012900030A11B4803F0ACFC03E04FF4FA7004F0FB
:1012A0009FFB18A12FA000F0ADF80028F5D131A1C7
:1012B000134803F09DFC03E04FF4FA7004F090FB38
:1012C0002FA131A000F09EF80028F5D136A10C48DE
:1012D00003F08EFC03E04FF4FA7004F081FB36A1BA
:1012E00037A000F08FF80028F5D140A1044803F0A2
:1012F0007FFC08BD00100140302E2041540D0A0033
:10130000003801404F4B000041540D0A000000001E
:10131000312E205253540D0A0000000041542B522C
:1013200053540D0A0000000041542B434950434CD4
:101330004F53450D0A000000322E2043574D4F44B5
:10134000450D0A0041542B43574D4F44453D310D47
:101350000A000000332E2041542B43574448435089
:101360000D0A000041542B4357444843503D312C53
:10137000310D0A00342E2043574A41500D0A000017
:10138000474F54204950000041542B43574A415085
:101390003D2269514F4F39222C227A7179313132F5
:1013A000303331220D0A0000352E2043495053546A
:1013B0004152540D0A000000434F4E4E4543540025
:1013C00041542B43495053544152543D22544350AD
:1013D000222C2262726F6B65722E656D71782E6998
:1013E0006F222C313838330D0A000000362E20458C
:1013F00053503832363620496E6974204F4B0D0AEF
:10140000000000002DE9F04104460D46C8262046A4
:10141000FEF7F0FE87B23A4621460D4803F00CFC79
:101420000FE000F03DF848B929460A48FEF7C6FE2D
:1014300020B1FFF79FFE0020BDE8F0810A2004F0F4
:10144000CFFA3000A6F10101CEB2EAD10120F3E7D4
:1014500000440040A003002030B589B004460D468A
:10146000FFF788FE2A4608A101A803F0FFFB0AA1A6
:1014700001A8FFF7C7FF20B92A462146074803F015
:10148000DBFB09B030BD000041542B4349505345AC
:101490004E443D25640D0A003E000000004400401B
:1014A0000A48008808B901207047084800880849A0
:1014B0000988884203D1002004490880F4E70348E2
:1014C0000088034908800120EEE700007800002032
:1014D0007A0000202DE9F041024600250026002078
:1014E00000230024002791F803C00CF00F0591F8A9
:1014F00003C00CF0100CBCF1000F03D091F802C037
:101500004CEA050591F800C0BCF1000F31D0146819
:1015100000202BE04FF0010C0CFA00F3B1F800C0F2
:101520000CEA03069E4220D183004FF00F0C0CFA08
:1015300003F7BC4305FA03FC4CEA040491F803C02A
:10154000BCF1280F06D14FF0010C0CFA00FCC2F8D8
:1015500014C00AE091F803C0BCF1480F05D14FF068
:10156000010C0CFA00FCC2F810C0401C0828D1D3B2
:101570001460B1F800C0BCF1FF0F34DD54680020E6
:101580002EE000F1080C4FF0010808FA0CF3B1F856
:1015900000C00CEA03069E4221D183004FF00F0CDD
:1015A0000CFA03F7BC4305FA03FC4CEA040491F877
:1015B00003C0BCF1280F05D100F1080C08FA0CF8A3
:1015C000C2F8148091F803C0BCF1480F07D100F1B4
:1015D000080C4FF0010808FA0CF8C2F81080401C03
:1015E0000828CED35460BDE8F0810000F0B50A466B
:1015F000002300240021002500F00046B6F1004F32
:1016000002D11D4EF16901E01B4E7168C0F3034524
:1016100083B200F44016B6F5401F08D121F0706186
:10162000154E766826F07066134F7E6012E000F467
:101630008016B6F5801F06D1032606FA05F4A143ED
:1016400041F0706106E0460D360103FA06F6B1433B
:1016500041F0706122B1460D360103FA06F63143BE
:1016600000F00046B6F1004F02D1034EF16101E0F7
:10167000014E7160F0BD00000000014002460020F4
:1016800093680B400BB1012000E0002070474161DE
:101690007047016170470AB1016100E04161704724
:1016A0002DE9FC5F0546884691469A46DDF830B044
:1016B00000953320019000245FE004EB04103749CB
:1016C00011F810009BF80010884253D104EB04106D
:1016D000324901EB400040789BF80110884249D123
:1016E00008F10F0083B205F10F0082B2414628468F
:1016F00000F090FC00263BE0002734E00D9890B904
:1017000004EB0410254901EB4000801C805D802122
:101710003941084018B1484600F07AFE21E05046B1
:1017200000F076FE1DE01E48A0F8009004EB0410C7
:101730001A4901EB4000801C805D8021394108403E
:1017400018B14146284600F0C1FA681C85B20098DD
:10175000281A102805D1009D08F101001FFA80F811
:1017600003E0781CC7B2082FC8DB00BF701CC6B2EC
:10177000202EC1DB00BF601C84B2019884429CDB38
:1017800008484088401E83B206480088401E82B246
:101790000021084600F03EFCBDE8FC9F6E86000874
:1017A00060000020880300202DE9FC5F0546884684
:1017B00091469A46DDF830B000950720019000244C
:1017C00067E004EB840000EB44103A4911F8100084
:1017D0009BF80010884259D104EB840000EB4410C0
:1017E000344901EB400040789BF8011088424DD10C
:1017F00008F1170083B205F1170082B2414628466E
:1018000000F008FC00263FE0002738E00D98A0B962
:1018100004EB840000EB4410264901EB4000801CDF
:10182000805D80213941084018B1484600F0F0FD44
:1018300023E0504600F0ECFD1FE01F48A0F80090A8
:1018400004EB840000EB44101A4901EB4000801CBB
:10185000805D80213941084018B14146284600F09A
:1018600035FA681C85B20098281A182805D1009D01
:1018700008F101001FFA80F803E0781CC7B2082FB6
:10188000C4DB00BF701CC6B2482EBDDB00BF601CAD
:1018900084B20198844294DB08484088401E83B299
:1018A00006480088401E82B20021084600F0B2FBC4
:1018B000BDE8FC9F348D00086000002088030020F4
:1018C0002DE9FC5F0546884691469A46DDF830B022
:1018D00000950420019000245FE004EB8410374958
:1018E00011F810009BF80010884253D104EB8410CB
:1018F000324901EB400040789BF80110884249D101
:1019000008F11F0083B205F11F0082B2414628464C
:1019100000F080FB00263BE0002734E00D9890B9F2
:1019200004EB8410254901EB4000801C805D802180
:101930003941084018B1484600F06AFD21E05046A0
:1019400000F066FD1DE01E48A0F8009004EB841036
:101950001A4901EB4000801C805D8021394108401C
:1019600018B14146284600F0B1F9681C85B20098CC
:10197000281A202805D1009D08F101001FFA80F8DF
:1019800003E0781CC7B2082FC8DB00BF701CC6B2CA
:10199000802EC1DB00BF601C84B2019884429CDBB6
:1019A00008484088401E83B206480088401E82B224
:1019B0000021084600F02EFBBDE8FC9F3A8F00088E
:1019C000600000208803002010B504460723012290
:1019D00021460948FFF74EFA01210748FFF7ABFA05
:1019E00000BF02210448FFF7ABF90028F9D00248F4
:1019F000FFF7A2F910BD0000002401402DE9F041DD
:101A000007460C460025002608E03846FFF7DCFFB5
:101A10000544052003F0E4FF701CC6B2A642F4DBC7
:101A2000B5FBF4F080B2BDE8F08100002DE9F0478D
:101A300006460F46154607F11F0083B206F11F0048
:101A400082B23946304600F0E5FA00240AE015F883
:101A5000149005EB440090F8018049EA082000F05A
:101A6000D7FC641CB4F5806FF1DB07484088401E4A
:101A700083B205480088401E82B20021084600F06B
:101A8000C9FABDE8F0870000880300202DE9FE4F69
:101A90000E4617469846DDE90D9A0C9C2046FEF747
:101AA000A9FB85B208490988A1EBC50000EBD071FC
:101AB000C1F34F0B43463A46314658468DE810066F
:101AC00002F092FABDE8FE8F8803002000BFFEE717
:101AD0000146CA1701EB92729210A1EB820292B9F1
:101AE000642091FBF0F200FB121050B94FF4C87063
:101AF00091FBF0F200FB121008B9012070470020A2
:101B0000FCE70120FAE70020F8E7000008B5012112
:101B100040F2411001F06EFE01210D48FFF766FD15
:101B20001E20ADF8000048208DF8030069460948E2
:101B3000FFF7D0FC48208DF803001820ADF8000016
:101B400003208DF8020069460348FFF7C3FC08BD77
:101B500000043000002001400018014010B5044688
:101B600014B101203E4908703D48007800284ED04D
:101B700002213C48FFF782FDC0B104213948FFF73C
:101B80007DFD98B108213748FFF778FD70B110212D
:101B90003448FFF773FD48B108213348FFF76EFD65
:101BA00020B110213048FFF769FD78BB0A2003F00F
:101BB00017FF00202A49087002212A48FFF75EFD1E
:101BC00008B9012010BD04212648FFF757FD08B9C8
:101BD0000220F7E708212348FFF750FD08B903204A
:101BE000F0E710211F48FFF749FD08B90420E9E795
:101BF00008211D48FFF742FD08B90520E2E7102142
:101C00001948FFF73BFD40BB0620DBE7FFE7022159
:101C10001448FFF733FD01281FD104211148FFF7B5
:101C20002DFD012819D108210E48FFF727FD0128B5
:101C300013D110210B48FFF721FD01280DD10821F8
:101C40000948FFF71BFD012807D110210648FFF7BF
:101C500015FD012801D1024908700020B2E70000FB
:101C600068000020002001400018014070B50646C1
:101C700014484088401E83B212480088401E82B239
:101C80000021084600F0C6F94FF400600E490860D4
:101C90004010091F086000240AE0002503E03046D8
:101CA00000F0B6FB6D1C07480088A842F7D8641CFA
:101CB00004484088A042F0D84FF400600249091F50
:101CC000086070BD88030020140C014070B5044604
:101CD0000D462946204600F093F90248008800F09E
:101CE00097FB70BD600000202DE9F05F04460D46B3
:101CF00016461F46301B401C1FFA80FA781B401CFA
:101D00001FFA80FB3B4632462946204600F082F906
:101D10004FF000080FE04FF0000906E00A9800F0CD
:101D200077FB09F101001FFA80F9D145F6DB08F1D4
:101D300001001FFA80F8D845EDDB07484088401EB7
:101D400083B205480088401E82B20021084600F098
:101D500061F9BDE8F09F00008803002008B501216B
:101D6000082001F047FD4FF4F050ADF800000320CB
:101D70008DF8020010208DF8030069460148FFF736
:101D8000A9FB08BD000C014010B502F02FF8FFF7C9
:101D9000E5FF00F021F9CF2000F0A0FA002000F0CC
:101DA00085FAD92000F082FA302000F07FFAED2089
:101DB00000F094FA642000F079FA032000F076FA3B
:101DC000122000F073FA812000F070FAE82000F091
:101DD00085FA852000F06AFA102000F067FA7A2070
:101DE00000F064FACB2000F079FA392000F05EFAB6
:101DF0002C2000F05BFA002000F058FA342000F0AC
:101E000055FA022000F052FAF72000F067FA20207D
:101E100000F04CFAEA2000F061FA002000F046FAE7
:101E2000002000F043FAC02000F058FA1B2000F018
:101E30003DFAC12000F052FA122000F037FAC52016
:101E400000F04CFA082000F031FA262000F02EFABB
:101E5000C72000F043FAB72000F028FA362000F03F
:101E60003DFA082000F022FA3A2000F037FA552017
:101E700000F01CFAB12000F031FA002000F016FA50
:101E80001A2000F013FAB62000F028FA0A2000F019
:101E90000DFAA22000F00AFAF22000F01FFA00204A
:101EA00000F004FA262000F019FA012000F0FEF9F3
:101EB000E02000F013FA0F2000F0F8F91D2000F0E8
:101EC000F5F91A2000F0F2F90A2000F0EFF90D20E0
:101ED00000F0ECF9072000F0E9F9492000F0E6F9FC
:101EE000662000F0E3F93B2000F0E0F9072000F065
:101EF000DDF9112000F0DAF9012000F0D7F909200E
:101F000000F0D4F9052000F0D1F9042000F0CEF95A
:101F1000E12000F0E3F9002000F0C8F9182000F0FB
:101F2000C5F91D2000F0C2F9022000F0BFF90F2012
:101F300000F0BCF9042000F0B9F9362000F0B6F941
:101F4000132000F0B3F94C2000F0B0F9072000F0A6
:101F5000ADF9132000F0AAF90F2000F0A7F92E2008
:101F600000F0A4F92F2000F0A1F9052000F09EF95F
:101F70002B2000F0B3F9002000F098F9002000F0C9
:101F800095F9012000F092F93F2000F08FF92A2006
:101F900000F0A4F9002000F089F9002000F086F993
:101FA000002000F083F9EF2000F080F9112000F00C
:101FB00095F9782003F014FD292000F08FF9002016
:101FC00000F0B4F90120034908604FF6FF70FFF7F5
:101FD0004DFE10BDA481214210B54FF48050074939
:101FE0000860642003F0FCFC4FF480500349091F93
:101FF0000860322003F0F4FC10BD0000140C014016
:1020000070B504460D462B4622462946204600F070
:1020100001F870BD2DE9F04104460D4616461F46F5
:102020001149887A00F05AF9201200F03FF9E0B225
:1020300000F03CF9301200F039F9F0B200F036F956
:102040000949087B00F04AF9281200F02FF9E8B29C
:1020500000F02CF9381200F029F9F8B200F026F956
:1020600000F052F9BDE8F081880300202DE9FF4F10
:1020700083B081468A469346DDE910644048008873
:102080000290A6F12000C6B204EBD47009EB600008
:10209000401E82B20AEB0400401E83B251464846FD
:1020A0000194FFF7B7FF129850BB002525E00C2CD8
:1020B00007D106EB4600334901EB800010F805809C
:1020C00004E0314800EB061010F8058000270DE011
:1020D00008F0010018B1584600F09AF902E006989D
:1020E00000F096F94FEA6808781CC7B204EBD47187
:1020F000B7EB610FECDB681CC5B2A542D7DB2DE066
:10210000002529E00C2C07D106EB46001D4901EB08
:10211000800010F8058004E01B4800EB061010F862
:102120000580002711E01648A0F800B008F0010073
:1021300038B10AEB050291B209EB070290B2FFF742
:10214000C5FD4FEA6808781CC7B204EBD471B7EB41
:10215000610FE8DB681CC5B2A542D3DB08490298D1
:1021600008800A484088401E83B208480088401E04
:1021700082B200210846FFF74DFF07B0BDE8F08F9F
:10218000600000200A7C00087E8000088803002090
:102190002DE9FF4F83B0074691461E46109C4FF035
:1021A000000A002543E0701B401EC1B20A2004F063
:1021B00097F8B9FBF0F00A21B0FBF1F201FB12082D
:1021C000BAF1000F1BD1701EA84218DDB8F1000F44
:1021D00013D100202021A346CDE90014029004EB86
:1021E000DB71491001FB057188B213490B88134953
:1021F0000A880499FFF73AFF17E04FF0010A00211F
:1022000008F13000C0B2A346CDE90141009004EBD3
:10221000DB71491001FB057188B207490B8807493A
:102220000A880499FFF722FF00BF681CC5B2B542B7
:10223000B9DB07B0BDE8F08F62000020600000202D
:102240002DE9FE4306460F4615461C46DDF828805C
:102250001DE013480088401EB04204DB104840884F
:10226000401EB84201DABDE8FE8320788DE82101E6
:102270000C4803880C48028839463046FFF7F6FEC2
:10228000284605EBD07106EB61018EB2641C207804
:102290007E2802DC20782028DBDA00BFE3E700009C
:1022A00088030020620000206000002010B5044672
:1022B0004FF40060074908604010091F086021467C
:1022C000054801F00BFE4FF400600249091F086049
:1022D00010BD0000140C01400038004010B5044649
:1022E0004FF4006006490860401008602146054828
:1022F00001F0F4FD4FF400600149091F086010BDB2
:10230000140C01400038004010B50249087AFFF76C
:10231000E5FF10BD8803002070B505460C46284631
:10232000FFF7DCFFE0B2FFF7C1FF70BD10B5044658
:102330002A201E4948812B2088812C20088134B115
:10234000012C0FD0022C18D0032C2CD120E0F0202F
:10235000164908804FF4A070488008213620FFF706
:10236000DBFF21E04FF4A07010490880F020488086
:1023700068213620FFF7D0FF16E0F0200B490880D7
:102380004FF4A0704880C8213620FFF7C5FF0BE04E
:102390004FF4A07005490880F0204880A82136201D
:1023A000FFF7BAFF00E000BF00BF10BD88030020A8
:1023B00008B50121082001F01DFA0121402001F09B
:1023C00019FA10208DF803002020ADF8000003203A
:1023D0008DF8020069460C48FFF77CF820210A4876
:1023E000FFF757F910208DF803002020ADF800000A
:1023F00003208DF8020069460448FFF76BF820219E
:102400000248FFF746F908BD000C014000180140E2
:1024100010B504464FF40060094908604010091FD8
:1024200008602112074801F059FDE1B2054801F0AA
:1024300055FD4FF400600249091F086010BD0000FF
:10244000140C01400038004010B50446207B0128E0
:1024500002D1206803F002FB002020606060A060D1
:10246000207310BD0246002301230DE002F07F001F
:102470000870D2092AB1087840F080000870491C21
:1024800001E0184670475B1C042BEFDD4FF0FF3076
:10249000F8E770B504460E460025206898B901207B
:1024A0002073304603F0E6FE20602068E0B1002093
:1024B0006060A66003E00020216848556D1CA0689C
:1024C000A842F8D810E00220207303E00020216821
:1024D00048556D1CA068A842F8D800206060A0682C
:1024E000B04201D20020206070BD00002DE9FF4FF6
:1024F00083B082468B469146159C002500200290B1
:102500000F2701904846FDF775FE0FFA80F8B9F1E4
:10251000000F03D1012007B0BDE8F08F08F10200E1
:10252000384487B2109808B145F00205129878B186
:1025300045F004051298FDF75DFEC0B202901398B5
:10254000FDF758FE01460298001D0844384487B242
:10255000119820B1012804D0022808D104E000BF5E
:1025600007E045F00C0504E045F0140501E0022009
:10257000D1E700BF149808B145F02405BAF1000F67
:1025800002D0BBF1000F01D10320C4E745F0C00524
:102590005046FDF72FFE06465846FDF72BFE304409
:1025A000001D384487B239462046FFF772FF206885
:1025B00008B90420AFE739462068FDF7F4FD102183
:1025C0006268501C606020688154D4E90023D118EF
:1025D000781FFFF747FF00B201900198002804DA46
:1025E0002046FFF731FF052095E761680198084410
:1025F000606000216268501C606020688154042182
:102600006268501C6060206881544D216268501CD3
:1026100060602068815451216268501C60602068AD
:10262000815454216268501C606020688154626843
:10263000501C60602068815404216268501C6060F6
:10264000206881546168481C606020684554069881
:10265000010A6268501C6060206881540698C1B20B
:102660006268501C606020688154C8F3072162686A
:10267000501C6060206881546268501C6060206853
:1026800000F80280D4E90012881842464946FDF756
:10269000B8FD60684044606005F00400B8B30026EF
:1026A000139808B938A013901298FDF7A3FD86B2CD
:1026B000310A6268501C6060206881546268501C56
:1026C000606020688654D4E9001288183246129956
:1026D000FDF797FD6068304460601398FDF78AFD50
:1026E00086B2310A6268501C60602068815462685A
:1026F000501C606020688654D4E900128818324665
:102700001399FDF77EFD60683044606000BF05F0FE
:102710008000C8B15046FDF76DFD86B2310A62688F
:10272000501C6060206881546268501C60602068A2
:102730008654D4E90012881832465146FDF761FDEF
:1027400060683044606000BF05F04000C8B1584682
:10275000FDF750FD86B2310A6268501C6060206847
:1027600081546268501C606020688654D4E900126D
:10277000881832465946FDF744FD60683044606071
:1027800000BF0020C7E60000000000002DE9FF4F59
:1027900083B0834617469946139C002500260020E7
:1027A000029001908046BBF1000F03D1012007B0D9
:1027B000BDE8F08F00260AE00498805D232803D04E
:1027C0000498805D2B2801D10220F0E7761C049844
:1027D000805D0028F0D148F03008119808B148F029
:1027E000010806EB0900851C109820B1012804D0CF
:1027F00002280AD105E000BF09E048F00208AD1C3C
:1028000005E048F00408AD1C01E00320CFE700BF5D
:102810008FB33878022821D14FF0000A00BF50460C
:102820000AF1010A385C7D28F9D1AAF1030A0AF1FC
:10283000070002900298A9EB000AE81CA0EB0A012D
:102840002046FFF726FE206808B90420AFE7EA1CFF
:10285000A2EB0A012068FDF7A6FC19E0691D2046DD
:10286000FFF717FE206808B90420A0E7691D20685B
:10287000FDF799FC0CE0FFE7691D2046FFF709FE14
:10288000206808B9042092E7691D2068FDF78BFCD9
:102890006168481C6060206800F80180D4E900028B
:1028A00081182846FFF7DEFD01900198002804DA20
:1028B0002046FFF7C9FD052079E7616801980844C3
:1028C0006060C6F307216268501C60602068815414
:1028D0006268501C606020688654D4E90012881831
:1028E00032460499FDF78DFC6068304460601098B2
:1028F00060B14FEA1B216268501C606020688154FF
:102900006268501C6060206800F802B0C7B1387877
:1029100002280BD1D4E9001288183946029AFDF733
:1029200029FC616802980844606009E0D4E900125B
:1029300088184A463946FDF71DFC606848446060C7
:10294000002034E770B505460C4604212046FFF709
:10295000A0FD206808B9012070BD70216268501C7C
:1029600060602068815402216268501C60602068A9
:10297000815429126268501C60602068815462682A
:10298000501C6060206885540020E5E770B505465E
:102990000C4604212046FFF77CFD206808B9012081
:1029A00070BD62216268501C606020688154022101
:1029B0006268501C60602068815429126268501C53
:1029C0006060206881546268501C60602068855493
:1029D0000020E5E72DE9FF5F8046174699460E9CEB
:1029E0000026B246B3460025B8F1000F03D10120FE
:1029F00004B0BDE8F09F0BE057F8250008B90220AD
:102A0000F6E757F82500FDF7F5FB0644681CC5B24C
:102A10004D45F1DB09EB4900801C00EB060A0AF189
:102A200005012046FFF735FD206808B90320DFE7E0
:102A300082216268501C606020688154D4E90002E1
:102A400081185046FFF70EFD0FFA80FBBBF1000F17
:102A500004DA2046FFF7F8FC0420C9E76068584410
:102A600060604FEA18216268501C606020688154E1
:102A70006268501C6060206800F80280002524E035
:102A800057F82500FDF7B6FB0646C6F30721626836
:102A9000501C6060206881546268501C606020682F
:102AA0008654D4E90023D01857F825103246FDF794
:102AB000A8FB6068304460600198C1B26268501C35
:102AC000606020688154681CC5B24D45D8DB002089
:102AD0008EE7F0B504460D4626460123002010601F
:102AE000002114E0775C07F07F07106807FB030004
:102AF0001060705C00F0800008B9481CF0BDDB017C
:102B0000B3F5001F02D36FF00100F7E7491CA9429B
:102B1000E8DB4FF0FF30F1E72DE9F84380460C4643
:102B200015461E462F2108F10600FDF759FB074602
:102B30000020009017B90120BDE8F8837F1C6A4689
:102B4000042108F10100FFF7C4FF252003F092FBE8
:102B50002060206808B90220EEE725212068FDF7F3
:102B600022FB242239462068FDF704FB2437009815
:102B70002C3830803188481C03F07CFB28602868A2
:102B800020B9206802F06AFF0320D5E73288511C83
:102B90002868FDF708FB328839462868FDF7EAFA0D
:102BA0000020C9E701464878022801D0012070477B
:102BB000887810B18878012801D1C878F7E7FF201C
:102BC000F5E700002DE9FC5F81460D4614461E46E0
:102BD000DDE90C8B99F8000000F00F0A002001904D
:102BE0000AF008000090CAF341008BF8000001AA27
:102BF000042109F10100FFF76CFF4844471C0198CC
:102C0000022802D30AF0010010B1FF20BDE8FC9FAA
:102C10007878397840EA012020802088801C01994A
:102C2000884201D9FF20F1E754A1B81CFDF7C6FA8C
:102C300008B10F20EAE79BF8000020B101283DD041
:102C4000022877D13BE0009808B1FF20DEE7218819
:102C5000481C03F00FFB2860286808B9FF20D5E75F
:102C60002288511C2868FDF79EFA2288B91C286822
:102C7000FDF780FA0198801E2188401AA8F800000C
:102C8000B8F80010481C03F0F5FA3060306820B93D
:102C9000286802F0E3FEFF20B8E7B8F80020511CD6
:102CA0003068FDF780FAB8F80020B4F800C0BB1C0B
:102CB0000CEB03013068FDF75DFA4FE000BF2088A0
:102CC000801C0199884201D9FF209FE72088C01C01
:102CD000395C2088801C385C41EA00210E98018014
:102CE0000E9808B9FF2091E72188481C03F0C2FA2A
:102CF0002860286808B9FF2088E72288511C2868C6
:102D0000FDF751FA2288B91C2868FDF733FA0198BB
:102D1000001F2188401AA8F80000B8F80010481CCD
:102D200003F0A8FA3060306828B9286802F096FEEF
:102D3000FF206BE710E0B8F80020511C3068FDF769
:102D400032FAB8F80020B4F800C03B1D0CEB0301C8
:102D50003068FDF70FFA01E0FF2057E700BF2B2195
:102D60002846FDF73DFA20B923212846FDF738FA19
:102D700008B1FF204AE7002048E70000246372659D
:102D80007100000001464878022801D001207047F8
:102D9000887820B9C8780A2801D10020F7E70120F7
:102DA000F5E701464878022801D00120704788786D
:102DB00020B9C8780A2801D10020F7E70120F5E7FB
:102DC00001464878022801D001207047887820B950
:102DD000C8780A2801D10020F7E70120F5E702466C
:102DE0005078022801D0012070479078B0EB112F65
:102DF00005D1D078CBB2984201D10020F4E7012070
:102E0000F2E70000F8B50446FF2720780511012DF0
:102E100001DB0E2D01DD3846F8BD032D24D1002045
:102E200000906A460421601CFFF753FE2044461CB4
:102E30000098022803D3207800F0010008B1FF2099
:102E4000EAE77078317840EA0120801C00998842D6
:102E500001D9FF20E0E706A1B01CFDF7AFF908B1EA
:102E60000F2700E0032700E02F463846D4E7000094
:102E700024637265710000000146FF208A78A2B9C0
:102E8000CA78142A11D10A7932B1012A05D0022A4E
:102E900004D0802A06D103E000BF00BF002003E079
:102EA000012001E0022000BF00BF70470146012061
:102EB0008A781AB9CA781E2A00D10020704700BF4C
:102EC000FEE7704770B5002100230F22C47804B3D9
:102ED000154C246804F4E064C4F5E064210AC1F1EF
:102EE0000403CA40447804FA03F18478144021436F
:102EF00009010E4C0678A155047804F01F05012441
:102F0000AC4005786D11AD0005F1E025C5F8004134
:102F100009E0047804F01F050124AC40044D067854
:102F2000761145F8264070BD0CED00E000E400E0AD
:102F300080E100E002490143024A1160704700004D
:102F40000000FA050CED00E030B58BB000200790D2
:102F5000089009900A90012530A032A333A235A130
:102F60000090404801F044FE07A80021029103911F
:102F7000CDE9041000912B0228A2019129A12BA0D8
:102F8000FFF7B4FA002842D1089A91B20798FEF7E9
:102F900063FAFA20FEF7FCF80446002C33D02046F2
:102FA000FFF730FF02282ED12046FFF7FBFD062851
:102FB00023D2DFE800F003090E13181D2AA12948C7
:102FC00001F016FE00251DE02CA1264801F010FEA0
:102FD00018E031A1234801F00BFE13E037A121488E
:102FE00001F006FE0EE03DA11E4801F001FE09E0E1
:102FF00043A11C4801F0FCFD04E04CA1194801F07C
:10300000F7FD00BF00BF07A8FFF71EFA03E04EA1BF
:10301000144801F0EDFD28460BB030BD3538323292
:1030200032380000746573740000000037373234A2
:10303000370000004F6E654E65745F4465764C69DD
:103040006E6B0D0A50524F49443A2025732C0941AA
:103050005549463A2025732C0944455649443A259A
:10306000730D0A0000380140546970733A09C1AC0D
:10307000BDD3B3C9B9A60D0A000000005741524E96
:103080003A09C1ACBDD3CAA7B0DCA3BAD0ADD2E96E
:10309000B4EDCEF30D0A00005741524E3A09C1ACCF
:1030A000BDD3CAA7B0DCA3BAB7C7B7A8B5C4636C11
:1030B00069656E7469640D0A000000005741524E44
:1030C0003A09C1ACBDD3CAA7B0DCA3BAB7FECEF1F2
:1030D000C6F7CAA7B0DC0D0A000000005741524EE7
:1030E0003A09C1ACBDD3CAA7B0DCA3BAD3C3BBA74E
:1030F000C3FBBBF2C3DCC2EBB4EDCEF30D0A0000A0
:103100005741524E3A09C1ACBDD3CAA7B0DCA3BAED
:10311000B7C7B7A8C1B4BDD328B1C8C8E7746F6B2F
:10312000656EB7C7B7A8290D0A0000004552523A8C
:1031300009C1ACBDD3CAA7B0DCA3BACEB4D6AAB479
:10314000EDCEF30D0A0000005741524E3A094D51A1
:1031500054545F5061636B6574436F6E6E65637446
:10316000204661696C65640D0A00000070B588B086
:1031700005460C46002004900590069007902346D3
:103180002A4610A1174801F033FD2046FDF732F81A
:10319000064604A80121002200923346CDE9012110
:1031A0000390224629460A20FFF7F0FA38B9059A1B
:1031B00091B20498FEF750F904A8FFF745F908B05A
:1031C00070BD00005075626C69736820546F70693F
:1031D000633A2025732C204D73673A2025730D0A1E
:1031E00000000000003801402DE9F04F8FB081460B
:1031F00000200B900C900D900E900A900990089072
:103200000790002706900026002582464846FFF7D3
:10321000F9FD0746F81E0D2877D2DFE800F01CE51F
:10322000F3F1F076EF76EE767676070007AB0AAA32
:1032300009A94846FFF770FC06465EB9BDF81C00B8
:103240000090B7A1BF48DDE9092301F0D1FC0BA82C
:10325000FFF7FAF834E1BC4806A907AA0AABCDE9A2
:103260000021029008AA09A94846FFF7ABFC0646D0
:10327000002E7BD1BDF81C000A99CDE90010BDF8E5
:103280002030B2A1AF48099A01F0B2FC0A9802F0CE
:1032900083FA8046B8F1000F08D102F057FA83464E
:1032A0005A46B9A1A74801F0A3FC99E0BBA140464A
:1032B00002F052FA0446BBA1A248226A01F098FC2F
:1032C000B8A1A048226901F093FCBBA12069FCF7DA
:1032D00075FF40B1BAA1404602F03EFA0446207D97
:1032E000B94908707CE0B9A12069FCF767FF98B183
:1032F000B3A1404602F030FA0446606930B140F2B2
:103300003A71B64801F081F96AE0D6E040F2947172
:10331000B24801F07AF963E0B1A12069FCF74EFFF1
:1033200090B1A7A1404602F017FA0446606928B19F
:1033300040F23A71A94801F06AF951E040F2947103
:10334000A64801F064F94BE0A9A12069FCF736FF1B
:1033500098B19BA1404602F0FFF90446606930B184
:1033600040F23A719D4801F054F939E03BE040F2F7
:1033700094719A4801F04DF932E0A1A12069FCF75F
:103380001DFF90B18EA1404602F0E6F90446606947
:1033900028B140F23A71914801F03DF920E040F245
:1033A00094718E4801F037F91AE099A12069FCF771
:1033B00005FF40B182A1404602F0CEF90446207DCF
:1033C000974908700CE097A12069FCF7F7FE38B127
:1033D0007BA1404602F0C0F9044694496069086048
:1033E000404602F087F96BE04846FFF7CBFC18B97E
:1033F0008FA1544801F0FCFB62E050E041E037E06F
:103400001AE0FFE74846FFF7DBFCA0B990A14D4862
:1034100001F0EEFB0BA90A20FFF7B8FA58B992A108
:10342000484801F0E5FB0C9A91B20B98FEF714F8AE
:103430000BA8FFF709F843E0434801884846FFF727
:10344000CEFCA0B98EA13F4801F0D2FB0BA90A2007
:10345000FFF778FA58B990A13A4801F0C9FB0C9AE5
:1034600091B20B98FDF7F8FF0BA8FEF7EDFF27E0F0
:103470004846FFF796FC18B98EA1324801F0B8FB18
:103480001EE04846FFF7F8FC20B990A12D4801F056
:10349000AFFB03E094A12B4801F0AAFB10E04846E3
:1034A000FFF704FD20B997A1264801F0A1FB03E036
:1034B0009BA1244801F09CFB02E04FF0FF3600BFC7
:1034C00000BFFDF757FE701C10B90FB0BDE8F08FBC
:1034D0007D210A98FCF784FE0546A5B1701C90B1C9
:1034E0006D1C06E015F8012B50460AF1010A03A9EC
:1034F0000A542878302802DB28783928F2DD03A81E
:10350000FCF7A2FE82460F2F01D0032F05D10998A8
:1035100002F0A4FA0A9802F0A1FA00BFD5E7000071
:10352000636D6469643A2025732C207265713A20BA
:1035300025732C207265715F6C656E3A2025640DD1
:103540000A0000000038014084000020746F706998
:10355000633A2025732C20746F7069635F6C656E0D
:103560003A2025642C207061796C6F61643A2025C3
:10357000732C207061796C6F61645F6C656E3A20AA
:1035800025640D0A000000004572726F72206265AA
:10359000666F72653A205B25735D0A00746172671D
:1035A000657400006A736F6E5F76616C75653A20B2
:1035B0005B25735D0A000000426565700000000035
:1035C00076616C7565000000810000207377697476
:1035D000636831436865636B656400000004004004
:1035E00073776974636832436865636B6564000070
:1035F00073776974636833436865636B656400005F
:1036000073776974636834436865636B656400004D
:1036100073776974636835436865636B656400003C
:103620008200002073706565640000007C0000204B
:10363000546970733A094D515454205075626C6945
:1036400073682053656E64204F4B0D0A0000000024
:10365000546970733A09526576205075626C6973CB
:10366000685265630D0A0000546970733A09536526
:103670006E64205075626C69736852656C0D0A0047
:10368000546970733A09526576205075626C69739B
:103690006852656C0D0A0000546970733A095365ED
:1036A0006E64205075626C697368436F6D700D0AAB
:1036B00000000000546970733A0952657620507515
:1036C000626C697368436F6D700D0A0054697073A2
:1036D0003A094D515454205375627363726962659F
:1036E000204F4B0D0A000000546970733A094D5188
:1036F0005454205375627363726962652045727217
:103700000D0A0000546970733A094D515454205504
:103710006E537562736372696265204F4B0D0A00C8
:10372000546970733A094D51545420556E53756263
:10373000736372696265204572720D0A00000000B1
:1037400070B586B004460D46002600200290039016
:103750000490059007E054F826200DA1124801F0CE
:1037600047FA701CC6B2AE42F5DB02A82B462246D1
:10377000002100901420FFF72DF938B9039A91B277
:103780000298FDF769FE02A8FEF75EFE06B070BD66
:1037900053756273637269626520546F7069633A2E
:1037A0002025730D0A00000000380140014908621D
:1037B0007047000000000E427047000001460020E4
:1037C000034A506820F440400843506070470000AE
:1037D0000010024029B1064AD2690243044BDA6163
:1037E00004E0034AD2698243014BDA61704700006A
:1037F0000010024029B1064A92690243044B9A61C3
:1038000004E0034A92698243014B9A6170470000C9
:103810000010024029B1064AD2680243044BDA6024
:1038200004E0034AD2688243014BDA60704700002B
:103830000010024001490860704700004004424205
:1038400030B500210022002400232D4D6D6805F0C5
:103850000C0121B1042905D0082923D105E0294D07
:10386000056022E0274D05601FE0254D6D6805F4D9
:103870007012234D6D6805F48034022505EB9242E9
:103880001CB9214D554305600BE01D4D6D6805F4D5
:1038900000351DB11C4D5543056002E0194D5543DF
:1038A000056002E0174D056000BF00BF144D6D6854
:1038B00005F0F0010909154D6B5C0568DD404560B8
:1038C0000F4D6D6805F4E061090A104D6B5C4568A9
:1038D000DD4085600A4D6D6805F46051C90A0B4DE5
:1038E0006B5C4568DD40C560054D6D6805F4404181
:1038F000890B074D6B5CC568B5FBF3F5056130BD01
:103900000010024000127A0000093D00370000203C
:103910004700002010B501460022002300204A1174
:10392000012A02D1094C236806E0022A02D1074C81
:10393000236A01E0054C636A01F01F0201249440F0
:103940001C400CB1012000E0002010BD001002401E
:1039500000210B4A11700A4A203A82F820100128EF
:1039600002D0042808D103E00121054A117004E0C7
:103970000521034A117000E000BF00BF704700003E
:103980002010024001490860704700003C04424298
:103990000249096A0143014A11627047001002405E
:1039A000024909888143014A118070470428004078
:1039B0000348008840F0100001490880704700006B
:1039C00004280040034800884FF6EF710840014981
:1039D000088070470428004070B5002600240025A8
:1039E00000F07AF806463848B6FBF0F4374800880D
:1039F000A0423CD035490C8040F2B27510E0284618
:103A0000FEF766F840B1B4F5B77F02D3A4F5B774FA
:103A100004E0681C85B206E0A4F26D14681C85B24F
:103A2000B4F5B67FEBD800BF29488580002516E0A5
:103A300027498888FEF74CF830B1012D04D11D2CA0
:103A400001D31D3C09E00CE02248405DA04203D8B0
:103A50002048405D241A00E003E0681C85B21C2C5D
:103A6000E6D200BF681C1A498871601CC8711648EC
:103A7000B6FBF0F100FB11644FF46160B4FBF0F0B1
:103A8000134908704FF46160B4FBF0F100FB114082
:103A90003C21B0FBF1F00E4948704FF46160B4FB7B
:103AA000F0F100FB11403C21B0FBF1F201FB1200F0
:103AB000074988700B46DA799979988800F028F8D8
:103AC00003490872002070BD80510100660000208B
:103AD0009603002080D30008002103480188001FBE
:103AE000008841EA004070471C2800400146002041
:103AF000064A12880A40D0B2044A121F12880A40AD
:103B000012B108B1012000E00020704704280040F5
:103B1000F0B503460C461546642093FBF0F0C6B2A0
:103B2000642093FBF0F700FB1730C1B2132E02DDC7
:103B300001F16400C1B20846CF1701EB977701EBA2
:103B4000A707BAB2072092FBF0F700FB172082B25A
:103B50005719601EDFF82CC01CF80000384482B2F0
:103B6000CF1701EB9777BF10A1EB87071FB9032C85
:103B700001DA501E82B2072092FBF0F700FB1720FB
:103B8000C0B2F0BD74D3000810B50120FFF7AEFF3E
:103B900008B1FFF721FF0220FFF7A8FF10B10220B4
:103BA000FFF7FEFE0520FFF7FBFE00F003F910BD56
:103BB00029B1064A12880243044B1A8004E0034AE2
:103BC00012888243014B1A80704700000028004091
:103BD0001CB500240420FDF761FA45F2500188422B
:103BE00047D001214FF0C050FFF7F4FD0120FFF74F
:103BF000DDFDFDF74BFA0120FFF7AAFE04E0601C93
:103C0000C4B20A2001F0ECFE4120FFF783FE002839
:103C1000F5D0FA2C01DB01201CBD4FF48070FFF7BA
:103C2000B7FE0120FFF7AEFE00F0C4F800F0CCF8BC
:103C300001210846FFF7BCFF00F0BCF8FFF7B8FE13
:103C400047F6FF7000F0A6F800F0B4F81E2032210D
:103C500014231322CDE900100A2140F2E47000F091
:103C600027F8FFF7AFFE45F250010420FDF724FAD4
:103C700007E000F0A9F801210846FFF799FF00F0DE
:103C800099F800F004F8FFF7A7FE0020C4E708B594
:103C900003208DF8000001208DF8010000208DF830
:103CA000020001208DF803006846FFF70BF908BDFC
:103CB0002DE9F05F06460F4690469946DDE90AABCE
:103CC000002440F2B270864203DB40F633008642A5
:103CD00002DD0120BDE8F09F40F2B2750AE02846FF
:103CE000FDF7F6FE10B12048044401E01F480444EB
:103CF000681C85B2B542F2DB781EC7B2002510E021
:103D00001B48405D40F2A321484304EBC0143046F9
:103D1000FDF7DEFE18B1012D01D116480444681CE0
:103D200085B2BD42ECDBA8F1010040F2A32148437B
:103D300004EBC014C9EB4910C0EB092004EB0014DC
:103D4000CAEB0A1004EB80045C4401214FF0C05020
:103D5000FFF740FD0120FFF729FD204600F00CF899
:103D600000F028F80020B5E70085E2018033E1018A
:103D700080D300088051010000B50246FFF718FE0D
:103D8000100C03490880091D0A80FFF71BFE00BDC7
:103D90001828004000B50246FFF70AFEC2F30340B0
:103DA00003490880091D0A80FFF70CFE00BD0000D2
:103DB0000828004000BF0348008800F020000028C9
:103DC000F9D0704704280040074800884FF6F77183
:103DD00008400549088000BF0348008800F008003B
:103DE0000028F9D0704700000428004000B587B0D3
:103DF00001210920FFF7FEFC4FF42040ADF804003C
:103E000003208DF8060018208DF8070001A91C4832
:103E1000FDF760FB4FF48040ADF8040048208DF8BA
:103E2000070003208DF8060001A91548FDF752FB95
:103E300001218803FFF7CEFC0020ADF808004FF405
:103E40008270ADF80A000020ADF80C00ADF80E004D
:103E5000ADF810004FF40070ADF812000020ADF87E
:103E60001400ADF816000720ADF8180002A90548A7
:103E700000F016F80121034800F006F807B000BD75
:103E8000000C01400038004021B1028842F040029D
:103E9000028004E002884FF6BF731A400280704728
:103EA00010B50022028802F441520B884C8823434B
:103EB0008C882343CC8823430C8923434C89234398
:103EC0008C892343CC8923431A430280838B4FF28E
:103ED000FF74234083830B8A038210BD024600BF18
:103EE000108900F002000028FAD0918100BF1089EB
:103EF00000F001000028FAD09089C0B270477047E6
:103F000010B500F001F810BD0CB500200190009034
:103F10003348006840F480303149086000BF3048C1
:103F2000006800F4003000900198401C0190009857
:103F300018B90198B0F5A06FF1D12948006800F4D4
:103F4000003010B10120009001E0002000900098A6
:103F5000012843D12348006840F01000214908603F
:103F60000846006820F0030008600846006840F03A
:103F7000020008601A4840681949486008464068CD
:103F800048600846406840F48060486008464068E1
:103F900020F47C1048600846406840F4E81048600F
:103FA0000846006840F08070086000BF0C48006858
:103FB00000F000700028F9D00948406820F00300A4
:103FC000074948600846406840F00200486000BF6A
:103FD0000348406800F00C000828F9D10CBD00002F
:103FE00000100240002002402DE9FF4F83B006463A
:103FF00088469146DDE91147109DB2464FF0000B0F
:1040000071E0BBF1000F40D104EBD471384A128843
:10401000A2EB6101B14204DB35494988091B4145E6
:1040200002DA07B0BDE8F08F2878802802DD4FF073
:10403000010B58E028780D2806D108EB04001FFA80
:1040400080F856466D1C1EE0102C0DDD10212878DE
:104050008DE883004A4641463046069BFEF706F847
:1040600006F1080086B20EE028788DE891004A46F5
:1040700041463046069BFDF7F9FF204604EBD07120
:1040800006EB61018EB26D1C2DE019480088001B03
:10409000B04204DB16484088001B404500DAC0E708
:1040A0004FF0000B202C08D1CDE900574A4641467D
:1040B0003046069BFDF704FC12E0182C08D1CDE930
:1040C00000574A4641463046069BFDF76DFB07E028
:1040D000CDE900574A4641463046069BFDF7E0FAD7
:1040E000AD1C301986B2287800288AD100BF98E725
:1040F00088030020042808D14FF0E021096941F02D
:1041000004014FF0E022116107E04FF0E02109695E
:1041100021F004014FF0E022116170477047000068
:1041200010B51348006840F00100114908600846C6
:104130004068104908400E494860084600680E492A
:1041400008400B4908600846006820F48020086099
:104150000846406820F4FE0048604FF41F00886065
:10416000FFF7CEFE4FF000600449086010BD00006C
:10417000001002400000FFF8FFFFF6FE08ED00E02F
:1041800010B50121880700F0CAF890B1094800680D
:1041900010B903F0F5FA08E006480068401E05492A
:1041A000086040210448FDF774FA0121880700F0F7
:1041B000A7F810BD7C000020001C01407FB505461B
:1041C0000C4601210846FFF705FBADF80850ADF895
:1041D00004400020ADF80A00ADF8060001A94FF038
:1041E000804000F01BFA01221146900700F0A8F869
:1041F0001C208DF8000000208DF8010002208DF8B1
:10420000020001208DF803006846FEF75BFE0121E5
:10421000880700F078F87FBD10B50121044800F050
:104220007EF818B10121024800F06AF810BD0000C4
:104230000004004030B589B005460C46012102203B
:10424000FFF7C8FA01210920FFF7D4FA0121284815
:10425000FDF7CCF901212748FDF7C8F93320ADF867
:10426000200018208DF8230003208DF8220008A9D3
:104270002148FDF72FF9ADF81850ADF81440002093
:10428000ADF81A00ADF8160005A91C4800F0C6F9F3
:104290007020ADF804000120ADF806000020ADF854
:1042A0000C0001A9154800F055F801A9134800F0C9
:1042B000A7F801A9114800F003F901A90F4800F07F
:1042C00059F908210D4800F091F808210B4800F039
:1042D000E9F80821094800F043F90821074800F0EF
:1042E00087F90121054800F00EF809B030BD000043
:1042F0000002300000081A00000C014000040040D9
:10430000CA430282704721B1028842F00102028052
:1043100004E002884FF6FE731A400280704730B501
:104320000246002000230024158A05EA010395892E
:1043300005EA010413B10CB1012000E0002030BDFA
:104340001AB183890B43838102E083898B43838184
:104350007047000070B5002400220023058C4FF642
:10436000FE7635400584028C8388048B4FF68F756A
:104370002C40B51E2C400D882C43751E2A400D89FB
:104380002A434D882A43144DA8420BD0134DA8420E
:1043900008D0134DA84205D0124DA84202D0124DAC
:1043A000A84213D14FF6F7752A404D892A434FF69C
:1043B000FB752A408D882A434FF6FF652B404FF648
:1043C000FF552B408D892B43CD892B43838004835C
:1043D000CD888586028470BD002C014000340140E8
:1043E0000040014000440140004801400A460021CD
:1043F000018B4FF6F773194011430183704700009A
:1044000070B5002400220023058C4FF6EF7635406E
:104410000584028C8388048B48F6FF752C404FF688
:10442000FF452C400D884FF6FF7606EA05252C4304
:104430004FF6DF752A400D8906EA05152A434D8897
:1044400006EA05152A43154DA84202D0144DA8428C
:104450001DD14FF67F752A404D894FF6FF7606EA4B
:1044600005152A434FF6BF752A408D8806EA0515C3
:104470002A434FF6FF352B404FF2FF752B408D89B5
:1044800006EA85052B43CD8906EA85052B43838003
:104490000483CD880587028470BD0000002C014094
:1044A000003401400A460021018B4FF2FF7319408E
:1044B0004FF6FF7303EA022319430183704700009C
:1044C00070B5002400220023058C4FF6FF663540AE
:1044D0000584028C8388848B4FF68F752C404FF6B1
:1044E000FC752C400D882C434FF6FF552A400D8952
:1044F0004FF6FF7606EA05252A434D8806EA05258C
:104500002A43154DA84202D0144DA8421DD14FF2A6
:10451000FF752A404D894FF6FF7606EA05252A43A6
:104520004FF6FF352A408D8806EA05252A434EF6C8
:10453000FF752B404DF6FF752B408D8906EA05155A
:104540002B43CD8906EA05152B4383808483CD88D0
:104550008587028470BD0000002C014000340140BA
:104560000A460021818B4FF6F7731940114381836E
:104570007047000070B5002200230024058C4EF621
:10458000FF7635400584038C8488828B48F6FF755E
:104590002A404FF6FF452A400D884FF6FF7606EA7F
:1045A00005252A434DF6FF752B400D8906EA053592
:1045B0002B434D8806EA05352B430B4DA84202D00C
:1045C0000A4DA84208D14BF6FF752C408D894FF655
:1045D000FF7606EA85152C4384808283CD88A0F877
:1045E0004050038470BD0000002C014000340140A5
:1045F0000A460021818B4FF2FF7319404FF6FF737B
:1046000003EA02231943818370478186704701873B
:10461000704781877047A0F84010704700220288D9
:104620001D4B98420ED01D4B98420BD0B0F1804FDD
:1046300008D01B4B984205D01A4B984202D01A4B17
:10464000984204D14FF68F731A404B881A43174B88
:10465000984207D0164B984204D04FF6FF431A40B9
:10466000CB881A4302808B8883850B8803850A4B8D
:1046700098420BD0094B984208D00E4B984205D077
:104680000D4B984202D00D4B984201D10B7A038614
:104690000123838270470000002C01400034014058
:1046A0000004004000080040000C004000100040E2
:1046B0000014004000400140004401400048014017
:1046C00008B501210420FFF795F84FF4F070ADF81C
:1046D000000028208DF8030069460248FCF7FAFE26
:1046E00008BD00000008014010B540F225511D48EA
:1046F00000F0B4F810B31B4800F06CF9C4B21A48CB
:10470000008800F40040C8B91748008800F48040D1
:1047100060B10A2C03D000201349088021E0124820
:10472000008840F40040104908801AE00D2C06D1A2
:104730000D48008840F480400B49088011E00A4889
:104740000088C0F30D0009490C5407480088401C3C
:104750000549088008460088B0F5C87F01DB0020C5
:10476000088010BD004C00402C000020F801002003
:1047700010B540F22551044800F070F818B120211E
:10478000014800F049F810BD0038014010B540F272
:1047900025510E4800F062F8B0B10D48008880281D
:1047A00002D300200A4908800848001D0088C1B2D1
:1047B000074802880088401C054B18800548815432
:1047C0002021024800F028F810BD000000440040FD
:1047D00078000020A003002010B540F225510B48BE
:1047E00000F03CF888B1094800F0F4F80849094A9B
:1047F0001278885407480078401C0649087008461B
:1048000000780A2801DD0020087010BD0048004033
:10481000940000203600002001F40072B2F5007F01
:1048200000D100BFCA430280704721B1828942F49F
:104830000052828104E082894DF6FF731A40828122
:10484000704702460020B1F5007F00D100BF1388F9
:104850000B400BB1012000E00020704770B502460C
:10486000002400230025002040F66A16B14200D142
:1048700000BFC1F3421501F01F03012606FA03F33E
:10488000012D02D19689334006E0022D02D1168A0D
:10489000334001E0968A33400C12012606FA04F4F4
:1048A0001688344013B10CB1012000E0002070BD27
:1048B000F0B50346002400260025002040F66A17C4
:1048C000B94200D100BF1846C1F3421401F01F06DF
:1048D000012707FA06F5012C01D10C3004E0022C67
:1048E00001D1103000E014301AB107682F4307607F
:1048F00002E00768AF430760F0BD00002DE9F04714
:1049000086B005460E460024A24600BFA1460027F9
:10491000B08900B100BF2F462C8A4CF6FF700440CE
:10492000F08804432C82AC894EF6F3100440B08822
:1049300031890843718908430443AC81AC8A4FF63E
:10494000FF400440B0890443AC8201A8FEF778FF21
:104950001F48874202D1DDF810A001E0DDF80CA06D
:10496000A88900F4004040B10AEBCA0000EB0A102D
:1049700031684900B0FBF1F807E00AEBCA0000EB30
:104980000A1031688900B0FBF1F86420B8FBF0F040
:1049900004012009642101FB1089A88900F400406A
:1049A00040B1322000EBC900B0FBF1F000F007008D
:1049B000044308E0322000EB09106421B0FBF1F061
:1049C00000F00F0004432C8106B0BDE8F087000022
:1049D0000038014001468888C0F308007047C1F3E1
:1049E000080282807047000010B586B0044601219D
:1049F0001020FEF7FFFE0121C804FEF7EBFE4FF486
:104A00008060ADF8140003208DF8160018208DF892
:104A1000170005A91C48FCF75DFD4FF40060ADF8D8
:104A2000140004208DF8170005A91748FCF752FD63
:104A300034208DF8000003208DF801008DF802006D
:104A400001208DF803006846FEF73CFA019400202F
:104A5000ADF80800ADF80A00ADF80C00ADF8100094
:104A60000C20ADF80E0001A90848FFF747FF01220E
:104A700040F225510548FFF71BFF01210348FFF7CE
:104A8000D4FE06B010BD000000100140004C0040F4
:104A900000BFFEE710B586B0044601210420FEF7F2
:104AA000A9FE01218803FEF7A5FE18208DF8170046
:104AB0004FF40070ADF8140003208DF8160005A91E
:104AC0001E48FCF707FD04208DF817000002ADF822
:104AD000140003208DF8160005A91848FCF7FAFC0D
:104AE00001940020ADF810000C20ADF80E0000205D
:104AF000ADF80C00ADF80A00ADF8080001A91048A7
:104B0000FFF7FCFE01210E48FFF78FFE012240F265
:104B100025510B48FFF7CCFE25208DF80000012021
:104B20008DF8030000208DF8010002208DF80200AE
:104B30006846FEF7C7F906B010BD00000008014046
:104B40000038014010B586B0044601210420FEF76C
:104B500051FE01214804FEF73DFE18208DF8170094
:104B60000420ADF8140003208DF8160005A91E4896
:104B7000FCF7B0FC04208DF817000820ADF81400F5
:104B800003208DF8160005A91748FCF7A3FC019433
:104B90000020ADF810000C20ADF80E000020ADF89C
:104BA0000C00ADF80A00ADF8080001A90F48FFF7A6
:104BB000A5FE01210D48FFF738FE012240F22551E4
:104BC0000A48FFF775FE26208DF8000001208DF8B9
:104BD000030000208DF801008DF802006846FEF702
:104BE00071F906B010BD000000080140004400400B
:104BF0000FB430B5CBB0054601AC50A800904FF4CF
:104C0000947101A8009B4F9A00F044F80020009096
:104C10000BE014F8011B2846FFF7E1FE00BF40211E
:104C20002846FFF70EFE0028F9D020780028F0D1A2
:104C30004BB030BC5DF814FB2DE9F04107460C4643
:104C4000154600260DE014F8011B3846FFF7C7FE95
:104C500000BF40213846FFF7F4FD0028F9D0701C52
:104C600086B2AE42EFDBBDE8F08100000FB4084B26
:104C700010B504A902AA039800F074F9044602A929
:104C8000002000F011FD204610BC5DF814FB000070
:104C9000A95600087CB5491E1C461546CDE9000101
:104CA000044B6A462146284600F05CF9009A002130
:104CB00011707CBD93560008490050EAC12018BF0E
:104CC00004204A0D18BF40F0010040F2FF72B2EB21
:104CD000515F08BF40F00200012808BF052070475F
:104CE00000487047900000202DE9F0414F1E00EB76
:104CF000C7010446D1E9000115461E4637F00602F9
:104D00000DD02A463346FBF71BFC7F1E04EBC7037E
:104D1000D3E90023FBF76DFB37F00602F1D1022F38
:104D200025D0042F13D0062F18BFBDE8F0812A46E6
:104D30003346FBF705FCD4E90A23FBF75AFB2A4666
:104D40003346FBF7FDFBD4E90823FBF752FB2A4669
:104D50003346FBF7F5FBD4E90623FBF74AFB2A466B
:104D60003346FBF7EDFBD4E90423FBF742FB2A466D
:104D70003346FBF7E5FBD4E90223FBF73AFB2A466F
:104D80003346FBF7DDFBD4E90023BDE8F041FBF738
:104D900030BB00000022134610460149FBF742BC1D
:104DA0000000F03FFBF725BB0022134610461146DA
:104DB000FBF738BC40F2013200204FF0E041FBF736
:104DC00083BE0000024A00201107FBF77DBE0000F1
:104DD00001FDFFFF02E008C8121F08C1002AFAD136
:104DE00070477047002001E001C1121F002AFBD16B
:104DF00070470000014908607047000090000020E3
:104E00002DE9FF5FDDE90220010DDDF838B0024336
:104E100018D044F61050A1F2FF3141430D140F9801
:104E2000012820D0A5EB0B00401C5FEA000A4FF0E0
:104E30000004474EDFF81C91A046504616D5CAF133
:104E4000000728E00F98012443A2012808D0002180
:104E500000980F9BC0E90021C0E90243BDE8FF9F15
:104E60006FEA0B01F4E7CBF10000DEE7074612E042
:104E7000F80707D02246334640464946FBF760FB19
:104E8000804689462246334610461946FBF758FBB2
:104E900004460E467F10002FEAD1DDE90201BAF187
:104EA000000F42464B4602DAFBF74AFB01E0FBF7F4
:104EB000B9FB04460E460022284BFBF783FC03D8BF
:104EC0004FF0FF30014607E00022254B20463146D7
:104ED000FBF78FFAFBF70FFE102409E0002C0ADB2A
:104EE0000A220023FBF7C2FC019B30321A55641ED4
:104EF00050EA0102F2D1641C019AC4F11103144476
:104F00000F9A012A03D0012208430DD10AE0084379
:104F100004D000204FF0110B0F9080E7A3EB0B059E
:104F20006D1E0DE05B4504DD4FF0000205F101054B
:104F300004E003DA4FF00002A5F10105002AECD0ED
:104F400000980F99C0E90231C0E9004586E70000EA
:104F5000000024400000F03F300000000000F0435B
:104F60000000E03F2DE9FF4F95B09B46894606467D
:104F700000250FE2252877D100242746F84A012191
:104F8000059400E0044316F8013F203B01FA03F0CA
:104F90001042F7D130782A2811D06FF02F033078E3
:104FA000A0F13002092A16D8059A44F0020402EB57
:104FB000820203EB42021044761C0590EFE759F899
:104FC000042B0592002A03DA504244F40054059061
:104FD00044F00204761C30782E2816D116F8010F02
:104FE00044F004042A280DD06FF02F023078A0F18D
:104FF0003003092B09D807EB870302EB4303C718DB
:10500000761CF3E759F8047B761C30786C280FD0B7
:1050100006DC4C2817D068280DD06A2814D104E08B
:10502000742810D07A280FD10DE044F400140AE05F
:1050300044F4801401E044F440147278824202D1B6
:1050400004F58014761C761C307866280BD013DCAF
:10505000582877D009DC002875D04528F6D0462896
:10506000F4D047281AD19DE118E0632835D0642890
:1050700079D0652812D195E1702873D008DC6728B3
:10508000F1D069286FD06E280DD06F2806D1B5E019
:1050900073282CD0752875D0782874D05A46179963
:1050A00090476D1C75E1C4F30250022809D0032813
:1050B0000DD0D9F8001004280DD00D6009F10409B5
:1050C00067E1D9F80010EA17C1E90052F6E7D9F80C
:1050D00000100D80F2E70D70F0E719F8041B8DF851
:1050E000001000208DF80100EA46012003E059F885
:1050F00004AB4FF0FF3061074FF0000102D40DE028
:1051000008F101018846B9420FDA8045F8DB1AF848
:1051100008100029F4D108E008F101018846814215
:10512000FADB1AF808100029F6D105985B46A0EBC7
:10513000080721463846179A00F094FA284400EBF5
:10514000080507E04DE029E10DE01AF8010B5A4689
:1051500017999047B8F10108F7D25B4621463846C7
:10516000179A13E142E00A220092C4F302524FF070
:10517000000A022A08D059F804CB032A4FEAEC713E
:105180000AD00DE029E02AE009F1070121F0070229
:10519000F2E802C1914609E00FFA8CFC4FEAEC718B
:1051A000042A03D14FFA8CFC4FEAEC71002907DA8C
:1051B0000A460021DCF1000C61EB02012D2202E025
:1051C000220504D52B228DF80420012203E0E207FA
:1051D00001D02022F7E7904659E00A2102E0102290
:1051E0000DE010214FF0000A00910BE010224FF06B
:1051F000000A44F004040827009203E008224FF05C
:10520000000A0092C4F30252022A05D059F804CBD6
:105210000021032A08D009E009F1070121F0070263
:10522000F2E802C1914605E01FFA8CFC042A01D184
:105230000CF0FF0C4FF00008220728D5702806D08C
:10524000009B83F0100353EA0A0305D00EE04022CE
:105250008DF80420012208E05CEA010206D0302229
:105260008DF804208DF8050002229046009B83F003
:10527000080353EA0A030AD15CEA010201D162077A
:1052800005D530228DF804204FF001087F1E5828E4
:1052900004D034A003900EA802900DE036A0F9E7E8
:1052A00053466046009AFBF7E1FA84460398825C15
:1052B0000298401E029002705CEA0100F0D1029850
:1052C00006A9081A00F1200A600702D524F48034E8
:1052D00000E00127574502DDA7EB0A0000E00020AF
:1052E00000EB0A01009005984144401A0590E00344
:1052F00006D45B462146179A059800F0B3F9054499
:10530000002706E001A85A46C05D179990476D1C1A
:105310007F1C4745F6DBE0030CD55B462146179A18
:10532000059800F09FF9054404E030205A4617998B
:1053300090476D1C0099481E00900029F5DC08E09C
:10534000029802995A460078491C02911799904791
:105350006D1CBAF10001AAF1010AF1DC65E100005F
:10536000092801003031323334353637383961623B
:1053700063646566000000003031323334353637FF
:1053800038394142434445460000000000F058F9D6
:105390000544761C307800287FF4ECAD19B028461F
:1053A000BDE8F08F620700D4062709F1070222F05A
:1053B000070CFCE80223E14603F000485FEA080C12
:1053C00002D00FF2702C0DE05FEA045C02D50FF200
:1053D000682C07E05FEAC47C02D00FF2602C01E089
:1053E000AFF2700C4FF0FF3823F00043CDF850C0FF
:1053F00065280CD006DC452809D046281DD0472852
:105400003DD13DE0662818D067287ED138E00021E4
:10541000112F01DB112000E0781CCDE9000106A965
:105420000EA8FFF7EDFCDDE90F010E9A03910021B4
:10543000009207F1010A04914DE04FF000400097FF
:10544000CDE9011006A90EA8FFF7DAFCDDE90F028D
:1054500003920E9B11990022DDF80CA00093049298
:1054600011B9791C00EB010AB7EB0A0004D4C0F1B2
:10547000FF3007F1010A0490AAEB0700019044E015
:10548000012F00DA01270021112F01DD112000E09A
:105490003846CDE9000106A90EA8FFF7B1FCDDE909
:1054A0000F010E9A0391002104910092BA46210740
:1054B0000CD40399514500DA8A46BAF1010F05DD93
:1054C000009AAAF10101515C302908D0B84202DAF1
:1054D00010F1040F06DA0121CDE9011015E0AAF15F
:1054E0000101E9E7002805DC049901440491AAEBD5
:1054F000000102E0411C514500DD8A460499401A32
:10550000401C01904FF000400290200704D4019805
:10551000504501DBCDF8048000208DF84F00029843
:105520000DF14F07B0F1004F25D02B200E900298BF
:105530004FF0020800280CDA404202902D200E9015
:1055400007E00A210298FBF77BF93031029007F857
:10555000011DB8F10001A8F10108F2DC0298002851
:10556000EFD1791E0E980870307800F0200040F0DE
:10557000450007F8020D12A8C01B00F10708149897
:10558000007800B1012000EB0A01019801EBE07105
:1055900005984144401A401E0590E00306D45B463E
:1055A0002146179A059800F05DF805441498007894
:1055B00018B15A46179990476D1CE00324D55B46F5
:1055C0002146179A059800F04DF805441CE0049810
:1055D000002807DBDDE90301884203DD0098405C19
:1055E000179901E0179930205A469047049805F121
:1055F0000105401C04900198401E019004D12E200A
:105600005A46179990476D1CBAF10001AAF1010A98
:10561000DDDC05E017F8010B5A46179990476D1C21
:10562000B8F10001A8F10108F4DC5B462146179AA5
:105630000598ABE62D0000002B00000020000000C4
:105640002DE9F041044600251E461746880404D47F
:1056500005E039462020B0476D1C641EF9D5284668
:10566000BDE8F0812DE9F041044600251E46904634
:10567000C80301D5302700E02027880404D505E0C1
:1056800041463846B0476D1C641EF9D52846BDE832
:10569000F0814A68002A06D00A68531C0B6010701B
:1056A0004868401E486070470A68531C0B601070C1
:1056B000704700000EB54FF6FF705A238222322148
:1056C00000900A20FCF710FB0120102105A24FF6E4
:1056D000FF73CDE9002102901F225A210A20FEF714
:1056E00083FC0EBDC8ABCCECBFAAC6F4C4A3CABD34
:1056F0000000000070B5044622E02568A08900F48F
:10570000807020B9A06810B1A068FFF7F3FFA089EE
:1057100000F4807028B9206918B10B492069096824
:105720008847A08900F4007028B9206A18B106499A
:10573000206A0968884720460349096888472C463B
:10574000002CDAD170BD0000740000200148006810
:10575000704700006C00002070B505460E46AC682E
:1057600000E024682CB13146206A00F04FF8002890
:10577000F7D1204670BD000010B528200549096802
:10578000884704461CB128212046FAF70CFD204624
:1057900010BD00007000002010B504460022114624
:1057A000204600F001F810BD2DE9F04780460D4677
:1057B00016460024FFF7E0FF074600201249086064
:1057C0000FB9BDE8F087404602F0F0F8814649463F
:1057D000384601F085FA044624B93846FFF78AFFB7
:1057E0000020EEE766B1204602F0E0F8044620789B
:1057F00030B13846FFF77EFF034804600020E0E741
:1058000005B12C603846DCE76C00002070B504461A
:105810000D462CB9AC4201D0012070BD0020FCE740
:105820000DB90120F9E705E0207808B90020F4E778
:10583000641C6D1C2078FAF797FC06462878FAF766
:1058400093FC8642F0D02078FAF78EFC0646287842
:10585000FAF78AFC301AE0E710B522A12448FFF7D6
:10586000C7F940F294712348FEF7CFFE40F29471DD
:105870002048FEF7CCFE40F294711E48FEF7C9FEA8
:1058800040F294711B48FEF7C6FE4FF4FA7000F028
:10589000A7F84FF4FA7000F0A3F84FF4FA7000F094
:1058A0009FF84FF4FA7000F09BF84FF4FA7000F094
:1058B00097F84FF4FA7000F093F84FF4FA7000F094
:1058C0008FF84FF4FA7000F08BF84FF4FA7000F094
:1058D00087F84FF4FA7000F083F84FF4FA7000F094
:1058E0007FF810BD0D0A20B9D8B1D50A0D0A000005
:1058F00000380140000400400EB54FF6FF70FCF781
:10590000B5F9012010210CA24FF6FF73CDE900215B
:1059100002901A4646210A20FEF766FB012010215C
:1059200008A24FF6FF73CDE9002102901F22322119
:105930000A20FEF759FB0EBD202020202020202029
:1059400020202000C0ACBBF8CDB0D2D1B9D8B1D5A1
:105950000000000010B540F294710F48FEF755FEAC
:10596000C82000F03DF840F294710B48FEF74FFE5E
:10597000C82000F035F840F294710748FEF749FE60
:10598000C82000F02DF840F294710348FEF743FE62
:10599000C82000F025F810BD0004004010B56FF0DD
:1059A0000400FEF7A7FB0A4800680A49B0FBF1F0C3
:1059B000094908700846007800EB4001C1EBC010AF
:1059C0004FF6FF7101EAC0000449088010BD0000D5
:1059D0001000002000127A00240000202600002081
:1059E0000146114A12884A434FF0E0235A610022CF
:1059F0009A611A46126942F001021A6100BF4FF023
:105A0000E022106900F001021AB100F48032002A8D
:105A1000F5D04FF0E022126922F001024FF0E023AE
:105A20001A6100229A6170472600002008B5012102
:105A30005920FDF7DFFE4FF40040ADF8000048208C
:105A40008DF8030069460448FBF744FD4FF400411C
:105A50000148FBF71CFE08BD0018014010B50028E6
:105A600021D0114B0022001F196803E0814203D8A6
:105A70000A4649680029F9D152B11368841A9C4238
:105A800004D1006818441060104602E0506000E045
:105A9000186039B102680B1A934203D10B681A449B
:105AA00002604968416010BD880000200EB51F20CB
:105AB000E74908804FF6FF7046238222322100908A
:105AC0000A20FCF711F901201021E2A24FF6FF7322
:105AD000CDE9002102901F2246210A20FEF784FA18
